{
  "_format": "hh-sol-artifact-1",
  "contractName": "WavePortal",
  "sourceName": "contracts/WavePortal.sol",
  "abi": [
    {
      "inputs": [],
      "stateMutability": "nonpayable",
      "type": "constructor"
    },
    {
      "anonymous": false,
      "inputs": [
        {
          "indexed": true,
          "internalType": "address",
          "name": "from",
          "type": "address"
        },
        {
          "indexed": false,
          "internalType": "uint256",
          "name": "timestamp",
          "type": "uint256"
        },
        {
          "indexed": false,
          "internalType": "string",
          "name": "message",
          "type": "string"
        }
      ],
      "name": "NewWave",
      "type": "event"
    },
    {
      "inputs": [],
      "name": "getAllWaves",
      "outputs": [
        {
          "components": [
            {
              "internalType": "address",
              "name": "waver",
              "type": "address"
            },
            {
              "internalType": "string",
              "name": "message",
              "type": "string"
            },
            {
              "internalType": "uint256",
              "name": "timestamp",
              "type": "uint256"
            }
          ],
          "internalType": "struct WavePortal.Wave[]",
          "name": "",
          "type": "tuple[]"
        }
      ],
      "stateMutability": "view",
      "type": "function"
    },
    {
      "inputs": [],
      "name": "getTotalWaves",
      "outputs": [
        {
          "internalType": "uint256",
          "name": "",
          "type": "uint256"
        }
      ],
      "stateMutability": "view",
      "type": "function"
    },
    {
      "inputs": [
        {
          "internalType": "string",
          "name": "_message",
          "type": "string"
        }
      ],
      "name": "wave",
      "outputs": [],
      "stateMutability": "nonpayable",
      "type": "function"
    }
  ],
  "bytecode": "0x60806040523480156200001157600080fd5b506200005d6040518060400160405280601581526020017f4920616d206120736d61727420636f6e747261637400000000000000000000008152506200006360201b620003b01760201c565b620001f7565b62000103816040516024016200007a919062000170565b6040516020818303038152906040527f41304fac000000000000000000000000000000000000000000000000000000007bffffffffffffffffffffffffffffffffffffffffffffffffffffffff19166020820180517bffffffffffffffffffffffffffffffffffffffffffffffffffffffff83818316178352505050506200010660201b60201c565b50565b60008151905060006a636f6e736f6c652e6c6f679050602083016000808483855afa5050505050565b60006200013c8262000194565b6200014881856200019f565b93506200015a818560208601620001b0565b6200016581620001e6565b840191505092915050565b600060208201905081810360008301526200018c81846200012f565b905092915050565b600081519050919050565b600082825260208201905092915050565b60005b83811015620001d0578082015181840152602081019050620001b3565b83811115620001e0576000848401525b50505050565b6000601f19601f8301169050919050565b610c1880620002076000396000f3fe608060405234801561001057600080fd5b50600436106100415760003560e01c8063449d46c0146100465780639a2cdc0814610062578063bd43a90814610080575b600080fd5b610060600480360381019061005b91906106b8565b61009e565b005b61006a610214565b6040516100779190610939565b60405180910390f35b61008861025f565b6040516100959190610880565b60405180910390f35b6000808154809291906100b090610afb565b91905055506100f56040518060400160405280601681526020017f257320776176656420772f206d657373616765202573000000000000000000008152503383610449565b600160405180606001604052803373ffffffffffffffffffffffffffffffffffffffff16815260200183815260200142815250908060018154018082558091505060019003906000526020600020906003020160009091909190915060008201518160000160006101000a81548173ffffffffffffffffffffffffffffffffffffffff021916908373ffffffffffffffffffffffffffffffffffffffff16021790555060208201518160010190805190602001906101b49291906105ad565b506040820151816002015550503373ffffffffffffffffffffffffffffffffffffffff167f5f7e16dc676677766a70e9c5628aa6c54ddb8b6e5188e2ae1e1f17f1ffbea7164283604051610209929190610954565b60405180910390a250565b60006102576040518060400160405280601781526020017f5765206861766520256420746f74616c207761766573210000000000000000008152506000546104e8565b600054905090565b60606001805480602002602001604051908101604052809291908181526020016000905b828210156103a757838290600052602060002090600302016040518060600160405290816000820160009054906101000a900473ffffffffffffffffffffffffffffffffffffffff1673ffffffffffffffffffffffffffffffffffffffff1673ffffffffffffffffffffffffffffffffffffffff16815260200160018201805461030c90610ac9565b80601f016020809104026020016040519081016040528092919081815260200182805461033890610ac9565b80156103855780601f1061035a57610100808354040283529160200191610385565b820191906000526020600020905b81548152906001019060200180831161036857829003601f168201915b5050505050815260200160028201548152505081526020019060010190610283565b50505050905090565b610446816040516024016103c491906108a2565b6040516020818303038152906040527f41304fac000000000000000000000000000000000000000000000000000000007bffffffffffffffffffffffffffffffffffffffffffffffffffffffff19166020820180517bffffffffffffffffffffffffffffffffffffffffffffffffffffffff8381831617835250505050610584565b50565b6104e3838383604051602401610461939291906108c4565b6040516020818303038152906040527fe0e9ad4f000000000000000000000000000000000000000000000000000000007bffffffffffffffffffffffffffffffffffffffffffffffffffffffff19166020820180517bffffffffffffffffffffffffffffffffffffffffffffffffffffffff8381831617835250505050610584565b505050565b61058082826040516024016104fe929190610909565b6040516020818303038152906040527f9710a9d0000000000000000000000000000000000000000000000000000000007bffffffffffffffffffffffffffffffffffffffffffffffffffffffff19166020820180517bffffffffffffffffffffffffffffffffffffffffffffffffffffffff8381831617835250505050610584565b5050565b60008151905060006a636f6e736f6c652e6c6f679050602083016000808483855afa5050505050565b8280546105b990610ac9565b90600052602060002090601f0160209004810192826105db5760008555610622565b82601f106105f457805160ff1916838001178555610622565b82800160010185558215610622579182015b82811115610621578251825591602001919060010190610606565b5b50905061062f9190610633565b5090565b5b8082111561064c576000816000905550600101610634565b5090565b600061066361065e846109b5565b610984565b90508281526020810184848401111561067b57600080fd5b610686848285610a87565b509392505050565b600082601f83011261069f57600080fd5b81356106af848260208601610650565b91505092915050565b6000602082840312156106ca57600080fd5b600082013567ffffffffffffffff8111156106e457600080fd5b6106f08482850161068e565b91505092915050565b60006107058383610812565b905092915050565b61071681610a4b565b82525050565b61072581610a4b565b82525050565b6000610736826109f5565b6107408185610a18565b935083602082028501610752856109e5565b8060005b8581101561078e578484038952815161076f85826106f9565b945061077a83610a0b565b925060208a01995050600181019050610756565b50829750879550505050505092915050565b60006107ab82610a00565b6107b58185610a29565b93506107c5818560208601610a96565b6107ce81610bd1565b840191505092915050565b60006107e482610a00565b6107ee8185610a3a565b93506107fe818560208601610a96565b61080781610bd1565b840191505092915050565b600060608301600083015161082a600086018261070d565b506020830151848203602086015261084282826107a0565b91505060408301516108576040860182610862565b508091505092915050565b61086b81610a7d565b82525050565b61087a81610a7d565b82525050565b6000602082019050818103600083015261089a818461072b565b905092915050565b600060208201905081810360008301526108bc81846107d9565b905092915050565b600060608201905081810360008301526108de81866107d9565b90506108ed602083018561071c565b81810360408301526108ff81846107d9565b9050949350505050565b6000604082019050818103600083015261092381856107d9565b90506109326020830184610871565b9392505050565b600060208201905061094e6000830184610871565b92915050565b60006040820190506109696000830185610871565b818103602083015261097b81846107d9565b90509392505050565b6000604051905081810181811067ffffffffffffffff821117156109ab576109aa610ba2565b5b8060405250919050565b600067ffffffffffffffff8211156109d0576109cf610ba2565b5b601f19601f8301169050602081019050919050565b6000819050602082019050919050565b600081519050919050565b600081519050919050565b6000602082019050919050565b600082825260208201905092915050565b600082825260208201905092915050565b600082825260208201905092915050565b6000610a5682610a5d565b9050919050565b600073ffffffffffffffffffffffffffffffffffffffff82169050919050565b6000819050919050565b82818337600083830152505050565b60005b83811015610ab4578082015181840152602081019050610a99565b83811115610ac3576000848401525b50505050565b60006002820490506001821680610ae157607f821691505b60208210811415610af557610af4610b73565b5b50919050565b6000610b0682610a7d565b91507fffffffffffffffffffffffffffffffffffffffffffffffffffffffffffffffff821415610b3957610b38610b44565b5b600182019050919050565b7f4e487b7100000000000000000000000000000000000000000000000000000000600052601160045260246000fd5b7f4e487b7100000000000000000000000000000000000000000000000000000000600052602260045260246000fd5b7f4e487b7100000000000000000000000000000000000000000000000000000000600052604160045260246000fd5b6000601f19601f830116905091905056fea26469706673582212205460e92fa86b23a287036816629118b99e796aad62c07f8181dfb0ba42ddc6f064736f6c63430008000033",
  "linkReferences": {},
  "deployedLinkReferences": {}
}